S0170000493243204170706C69636174696F6E2E73726563BB
S11300000C942A000C943F000C943F000C943F0085
S11300100C943F000C943F000C943F000C943F0060
S11300200C943F000C943F000C943F000C943F0050
S11300300C943F000C943F000C943F000C943F0040
S11300400C943F000C943F000C943F000C943F0030
S11300500C943F0011241FBECFE5D8E0DEBFCDBF16
S113006010E0A0E6B0E0EAE2F6E002C005900D92EE
S1130070AC36B107D9F70E94BF020C9413030C9459
S1130080000088E480B908980998B29A0895B49851
S1130090B598B698B59AB79AB79BFECF880FB5981E
S11300A0B498B69883B9B79AB79BFECFB598B4986D
S11300B0B69863B9B79AB79BFECFB598B498B6987B
S11300C043B9B79AB79BFECFB598B498B698B49A8B
S11300D0B79AB79BFECF0895B498B598B698B59AD9
S11300E0B79AB79BFECFB598B498B698982F990F46
S11300F093B9B79AB79BFECFB598B498B69863B93D
S1130100B79AB79BFECFB498B598B698B59AB79AF4
S1130110B79BFECF880F8160B598B498B69883B921
S1130120B79AB79BFECFB598B498B698B79AB79BD1
S1130130FECF83B1B598B498B698B49AB79AB79BE2
S1130140FECF08950E94410044E06DE28DE10E94DB
S113015047008FE39CE90197F1F700C00000089580
S1130160CF93DF93813041F1D0F08230A1F466E384
S11301708DE10E946C00C82F8FE99FE00197F1F791
S113018000C0000067E38DE10E946C008C2F819514
S1130190DF91CF91089580E0DF91CF91089562E3DC
S11301A08DE10E946C00C82F8FE99FE00197F1F761
S11301B000C0000063E3E7CF64E38DE10E946C00BC
S11301C0C82F8FE99FE00197F1F700C0000065E3B5
S11301D0DACF8AB387608ABB8AB3806F8ABBD89828
S11301E0D9988FE99FE00197F1F700C00000DA9AEF
S11301F08FE99FE00197F1F700C000008BB38F7087
S11302008BBB8BB38BBB8FE99FE00197F1F700C0E9
S11302100000DA988FE99FE00197F1F700C0000031
S1130220DA9A8FE99FE00197F1F700C000008BB3E1
S11302308F708BBBDD9A8FE99FE00197F1F700C0C7
S11302400000DA988FE99FE00197F1F700C0000001
S1130250D898D9988FE99FE00197F1F700C0000082
S1130260DA9A8FE99FE00197F1F700C000008BB3A1
S11302708F708BBBDD9A8FE99FE00197F1F700C087
S11302800000DA988FE99FE00197F1F700C00000C1
S1130290DA9A8FE99FE00197F1F700C000008BB371
S11302A08F708BBBDF9A8FE99FE00197F1F700C055
S11302B00000DA988FE99FE00197F1F700C0000091
S11302C0D898D9988FE99FE00197F1F700C0000012
S11302D0DA9A8FE99FE00197F1F700C000008BB331
S11302E08F708BBB8BB38BBB8FE99FE00197F1F7CA
S11302F000C00000DA988FE99FE00197F1F700C091
S11303000000DA9A8FE99FE00197F1F700C000003E
S11303108BB38F708BBB8BB3806C8BBB8FE99FE0EF
S11303200197F1F700C00000DA988FE99FE0019788
S1130330F1F700C00000D898D9988FE99FE00197A1
S1130340F1F700C00000DA9A8FE99FE00197F1F716
S113035000C000008BB38F708BBB8BB38BBB8FE95A
S11303609FE00197F1F700C00000DA988FE99FE061
S11303700197F1F700C00000DA9A8FE99FE0019736
S1130380F1F700C000008BB38F708BBBDC9A8FE950
S11303909FE00197F1F700C00000DA988FE99FE031
S11303A00197F1F700C000000895D898D9988FE913
S11303B09FE00197F1F700C00000DA9A8FE99FE00F
S11303C00197F1F700C000008BB38F708BBB8BB328
S11303D08BBB8FE99FE00197F1F700C00000DA982A
S11303E08FE99FE00197F1F700C00000DA9A8FE9E6
S11303F09FE00197F1F700C000008BB38F708BBBB7
S1130400DC9A8FE99FE00197F1F700C00000DA98C9
S11304108FE99FE00197F1F700C000000895FC0107
S11304208081882309F446C03196D89AD998AFE9D7
S1130430BFE01197F1F700C00000DA9AAFE9BFE01E
S11304401197F1F700C000009BB39F709BBB2BB3C7
S1130450982F907F922B9BBBAFE9BFE01197F1F7E8
S113046000C00000DA98AFE9BFE01197F1F700C0CF
S11304700000DA9A9BB39F709BBB2BB3B0E18B9FB8
S1130480C0011124282B2BBB8FE99FE00197F1F7C2
S113049000C00000AFE9BFE01197F1F700C0000011
S11304A0DA988FE99FE00197F1F700C0000081918D
S11304B08111BBCF0895CF93DF93CDB7DEB761979A
S11304C00FB6F894DEBF0FBECDBF4AE0BE016F5F2A
S11304D07F4F0E94DE028981882309F447C0FE0110
S11304E03296D89AD998AFE9BFE01197F1F700C0D6
S11304F00000DA9AAFE9BFE01197F1F700C00000FD
S11305009BB39F709BBB2BB3982F907F922B9BBB6D
S1130510AFE9BFE01197F1F700C00000DA98AFE946
S1130520BFE01197F1F700C00000DA9A9BB39F7007
S11305309BBB2BB3B0E18B9FC0011124282B2BBB99
S11305408FE99FE00197F1F700C00000AFE9BFE039
S11305501197F1F700C00000DA988FE99FE0019746
S1130560F1F700C0000081918111BBCF61960FB6F5
S1130570F894DEBF0FBECDBFDF91CF9108950E94E6
S1130580E90080E690E00E940F022FEF87EA91E6EF
S1130590215080409040E1F700C000000E94D50146
S11305A00E94A20088E690E00E940F0280E090E0A2
S11305B00E945B0280E00E94B000FCCFBB274A305F
S11305C031F4992322F4BDE2909581959F4F0C94C8
S11305D0EA02BB27FB015527AA27880F991FAA1FE8
S11305E0A41710F0A41B83955051B9F7A05DAA334A
S11305F008F0A95DA193009779F7B111B193119215
S1130600CB010C940303DC01FC01672F7191772368
S1130610E1F7329704C07C916D9370836291AE17B9
S10D0620BF07C8F30895F894FFCF54
S10F062A4144784C33343500583D000046
S9030000FC
